S0160000436170747572652D5369676E616C2E73726563AF
S11300000C942A000C9447000C9447000C9447006D
S11300100C9447000C9447000C94AB060C944700D6
S11300200C9447000C949A060C9447000C944700D7
S11300300C9447000C9447000C9447000C94470020
S11300400C9447000C9447000C9447000C94470010
S11300500C94470011241FBECFE5D8E0DEBFCDBF0E
S113006010E0A0E6B0E0E4E2F3E102C005900D92F6
S1130070A037B107D9F710E0A0E7B0E001C01D92A6
S1130080AF37B107E1F70E9449000C9490090C9432
S11300900000CF93DF93CDB7DEB728970FB6F8945F
S11300A0DEBF0FBECDBF81E08E8380E88F8384E204
S11300B088870E942F070E9414030E947A0180E01F
S11300C068E40E94350780E065E04CED50E020E0F4
S11300D030E000E2EE240E946107CE0106960E9401
S11300E0C0048FEF93EDA0E381509040A040E1F76E
S11300F000C00000CE0105960E94EC05CE010196D9
S11301000E94910580E690E00E94C3016D8170E039
S113011080E090E00E941C0285E20E94B30081E02E
S113012060E00E94A80186E690E00E94C301698114
S11301307A818B819C810E941C028CE690E00E9453
S1130140C301FFCF80E062E041E00E94220389EF17
S113015090E00197F1F700C0000080E062E040E029
S11301600E9422030895CF93C82F80E060E041E00D
S11301700E94220380E061E040E00E9422034C2FB1
S113018042954F70417081E064E00E9422034C2F3D
S1130190429546954770417081E065E00E942203D4
S11301A04C2F4295469546954370417081E066E038
S11301B00E9422034C2F441F4427441F81E067E020
S11301C00E9422030E94A20080E060E041E00E94BD
S11301D0220380E061E040E00E9422034C2F417042
S11301E081E064E00E9422034C2F4695417081E037
S11301F065E00E9422034C2F46954695417081E0AC
S113020066E00E942203C695C695C6954C2F4170A0
S113021081E067E00E9422030E94A20087EB9BE03A
S11302200197F1F700C00000CF910895CF93C82F34
S113023080E060E040E00E94220380E061E040E072
S11302400E9422034C2F42954F70417081E064E07C
S11302500E9422034C2F429546954770417081E0DD
S113026065E00E9422034C2F4295469546954370C3
S1130270417081E066E00E9422034C2F441F442712
S1130280441F81E067E00E9422030E94A20080E0F4
S113029060E040E00E94220380E061E040E00E94D0
S11302A022034C2F417081E064E00E9422034C2F12
S11302B04695417081E065E00E9422034C2F4695EB
S11302C04695417081E066E00E942203C695C6957A
S11302D0C6954C2F417081E067E00E9422030E9482
S11302E0A20087EB9BE00197F1F700C0000080E0DB
S11302F0CF9108958FE39FE10197F1F700C00000CB
S113030082E00E94160188E20E94160189EF90E0C3
S11303100197F1F700C000008CE00E94160189EFFC
S113032090E00197F1F700C0000081E00E941601FF
S113033083EF91E00197F1F700C0000086E00E948E
S1130340160185ED96E00197F1F700C000000895CD
S1130350823098F4603198F4882319F0813089F45C
S113036006C0862F80580E94160180E00895862FCB
S113037080540E94160180E0089581E0089581E090
S1130380089580E00895CF93DF93EC01009751F036
S11303908881882349F021960E94B300899188239B
S11303A0D9F703C081E001C080E0DF91CF910895C7
S11303B0DF92EF92FF920F931F93CF93DF93EC01A1
S11303C0F62EE42ED22E009741F187E0861738F1FD
S11303D091E0941730F18FE0821728F1862F880F6F
S11303E0880F880F805C0E9416018E01085F1F4FE2
S11303F089910E94B30081EE94E00197F1F700C067
S11304000000C017D107A1F78E2D6D2D0E94A80101
S11304108F2D0E94B30080E007C081E005C081E019
S113042003C081E001C081E0DF91CF911F910F9162
S1130430FF90EF90DF9008958F929F92AF92BF92BA
S1130440FF920F931F93CF93DF93CDB7DEB72F9710
S11304500FB6F894DEBF0FBECDBF8B019C016115B2
S113046071058105910521F480E30E94B30033C036
S1130470FF240F2EFAE08F2EF0E09F2EF0E0AF2E37
S1130480F0E0BF2EF02DC901B801A50194010E942E
S11304906E0989019A01E1E0F0E0EC0FFD1FEF0D18
S11304A0F11D6083F394011511052105310559F7F8
S11304B01F2D115082F0E12FFF27E7FDF09581E019
S11304C090E08C0F9D1FE80FF91F8081805D0E94D2
S11304D0B300115082F72F960FB6F894DEBF0FBE0B
S11304E0CDBFDF91CF911F910F91FF90BF90AF903F
S11304F09F908F900895DF92EF92FF920F931F9336
S1130500CF93DF9383E50E94B30081E061E00E9412
S1130510A80185E40E94B30080E062E00E94A80183
S113052089E40E94B30081E063E00E94A80186E4AC
S11305300E94B3008FE493EC0197F1F700C0000030
S113054080E10E941601DD24C4E0D0E0EE24E394AF
S113055080E00E94B300DD2031F48D2F6C2F0E94C7
S1130560A801DE2C06C0DE25CF5F8D2F6C2F0E94E4
S1130570A80186E40E94B30087EA91E60197F1F7A7
S113058000C000000F2EFEEFFF2EF02DFC0E8D2F6D
S11305906F2D0E94A80180E00E94B3001D2F1E252C
S11305A06C2F6150812F0E94A80189E40E94B3003E
S11305B087EA91E60197F1F700C000000C2F035081
S11305C0812F602F0E94A80180E00E94B3008D2F2C
S11305D06F2D0E94A80185E40E94B30087EA91E68A
S11305E00197F1F700C000006C2F64508D2F0E941A
S11305F0A80180E00E94B300812F602F0E94A8010F
S113060083E50E94B30087EA91E60197F1F700C001
S11306100000C33108F49CCFDF91CF911F910F915B
S1130620FF90EF90DF9008950E94170308958FEFD5
S11306308ABB87BB84BB9EEB91BB1BBA18BA85BB34
S113064012BA0895843008F08BC0683008F08AC06C
S1130650423008F089C0813041F1813038F0823075
S113066009F441C0833009F081C05BC0413071F4AA
S11306702BB381E090E0AC0102C0440F551F6A9592
S1130680E2F7BA01622B6BBB80E008952BB381E0E3
S113069090E0AC0102C0440F551F6A95E2F7BA011D
S11306A0609562236BBB80E00895413069F448B3E0
S11306B021E030E0C90102C0880F991F6A95E2F772
S11306C0842B88BB80E0089528B381E090E0AC01DE
S11306D002C0440F551F6A95E2F7BA016095622380
S11306E068BB80E00895413069F445B321E030E00F
S11306F0C90102C0880F991F6A95E2F7842B85BB54
S113070080E0089525B381E090E0AC0102C0440F7D
S1130710551F6A95E2F7BA016095622365BB80E0D4
S11307200895413071F422B381E090E0AC0102C03D
S1130730440F551F6A95E2F7BA01622B62BB80E051
S1130740089522B381E090E0AC0102C0440F551F2C
S11307506A95E2F7BA016095622362BB80E008956E
S113076081E0089581E0089581E0089580E008958E
S1130770843008F049C0683008F048C0411551057C
S113078009F446C08130B1F0813030F0823001F19B
S1130790833009F03FC02AC089B390E09C0102C0B5
S11307A0359527956A95E2F7B9016170FA0160837E
S11307B080E0089586B390E09C0102C035952795AA
S11307C06A95E2F7B9016170FA01608380E00895E7
S11307D083B390E09C0102C0359527956A95E2F7B2
S11307E0B9016170FA01608380E0089580B390E0FC
S11307F09C0102C0359527956A95E2F7B9016170AD
S1130800FA01608380E0089581E0089581E008950D
S113081081E0089580E008958430A8F4813051F097
S1130820813028F0823049F0833079F409C06BBB01
S113083080E0089568BB80E0089565BB80E008957A
S113084062BB80E0089581E0089580E008958430DB
S113085000F561157105F9F0813061F0813028F0FF
S1130860823069F08330C9F40FC08BB3FB018083FD
S113087080E0089588B3FB01808380E0089585B308
S1130880FB01808380E0089582B3FB01808380E0D4
S1130890089581E0089581E0089580E0089584300A
S11308A0E8F4813061F0813028F0823069F08330DF
S11308B0B9F40FC08BB380958BBB80E008958BB3E4
S11308C0809588BB80E0089585B3809585BB80E0E2
S11308D0089582B3809582BB80E0089581E00895F5
S11308E080E00895843008F045C0683008F044C0C2
S11308F08130B1F0813030F0823001F1833009F081
S11309003DC02AC02BB381E090E0AC0102C0440F8B
S1130910551F6A95E2F7BA0162276BBB80E0089520
S113092028B381E090E0AC0102C0440F551F6A95E2
S1130930E2F7BA01622768BB80E0089525B381E03D
S113094090E0AC0102C0440F551F6A95E2F7BA016A
S1130950622765BB80E0089522B381E090E0AC019A
S113096002C0440F551F6A95E2F7BA01622762BBC1
S113097080E0089581E0089581E0089580E008957D
S1130980FC010097D9F088B7806288BF1FBC1EBCE9
S11309909EB58181892B8EBD8EB580648EBD99B73D
S11309A08281892B89BF80818093710092819432E6
S11309B039F49EB5892B8EBD80E0089581E00895B9
S11309C080E008956F927F928F929F92AF92BF9230
S11309D0CF92DF92EF92FF920F931F93CF93DF9307
S11309E0EC013B01009709F48AC06115710509F413
S11309F088C088B7806288BF9EB580917100892BBA
S1130A008EBD08B605FEFDCF86B597B54091700042
S1130A1050E060E070E0BA01552744278C0120E0E3
S1130A2030E0040F151F261F371F88B7806288BF68
S1130A308EB58F7B8EBD08B605FEFDCF46B557B586
S1130A408091700090E0A0E0B0E0DC019927882755
S1130A5060E070E0480F591F6A1F7B1F88B78062EF
S1130A6088BF8EB580648EBD08B605FEFDCFC6B4C2
S1130A70D7B48091700098B7906298BF1EBC1DBC1B
S1130A801CBC17BC16BC90E0A0E0B0E0DC019927C8
S1130A908827EE24FF24C80ED91EEA1EFB1EC01AA6
S1130AA0D10AE20AF30A401B510B620B730BCB0110
S1130AB0BA010E945E0820E030E048EC52E40E9453
S1130AC0EC084B015C01C701B6010E945E089B0162
S1130AD0AC01C501B4010E94CA070E943208F301A7
S1130AE0608360E072E18AE790E0A70196010E94CA
S1130AF06E09288339834A835B8380E003C081E0E5
S1130B0001C081E0DF91CF911F910F91FF90EF9091
S1130B10DF90CF90BF90AF909F908F907F906F9019
S1130B200895CF92DF92EF92FF92CF93DF93EC017F
S1130B30009709F449C080917100833089F08430B2
S1130B4028F48130B1F0823029F407C0843059F0A0
S1130B50853061F080E090E00EC088E090E00BC04A
S1130B6080E490E008C080E091E005C080E094E07B
S1130B7002C081E090E06C01EE24FF2420917B0010
S1130B8030917C0040917D0050917E0080917300F3
S1130B9090917400A0917500B0917600281B390BD8
S1130BA04A0B5B0BC701B6010E944F099B01AC01C4
S1130BB060E072E18AE790E00E946E09288339833D
S1130BC04A835B8380E001C081E0DF91CF91FF9095
S1130BD0EF90DF90CF9008958F929F92AF92BF9243
S1130BE0CF92DF92EF92FF92CF93DF93EC010097C5
S1130BF0D9F1C0907300D0907400E0907500F0902B
S1130C0076008091770090917800A0917900B0915E
S1130C107A00BC01CD016C197D098E099F090E94DF
S1130C205E0820E030E048EC52E40E94EC084B01FE
S1130C305C0180917B0090917C00A0917D00B0913B
S1130C407E008C199D09AE09BF09BC01CD010E942B
S1130C505E089B01AC01C501B4010E94CA070E9451
S1130C603208688380E001C081E0DF91CF91FF907A
S1130C70EF90DF90CF90BF90AF909F908F900895AA
S1130C80CF92DF92EF92FF920F931F93FC01009794
S1130C9009F448C09EB580917100892B8EBD08B6B9
S1130CA005FEFDCF06B517B520E030E0C09070001A
S1130CB0DD24EE24FF247601DD24CC2488B7806271
S1130CC088BF8EB58F7B8EBD08B605FEFDCF86B579
S1130CD097B54091700058B7506258BF5EB5587FC1
S1130CE05EBD1DBC1CBC1092700050E060E070E062
S1130CF0BA0155274427401B510B620B730BA0E02C
S1130D00B0E0840F951FA61FB71F8C199D09AE096B
S1130D10BF0980839183A283B3838EB580648EBD23
S1130D2080E001C081E01F910F91FF90EF90DF9070
S1130D30CF9008951F920F920FB60F9211248F93A4
S1130D40809170008F5F809370008F910F900FBE21
S1130D500F901F9018951F920F920FB60F921124A7
S1130D604F935F936F937F938F939F93AF93BF93AF
S1130D7080917200813029F1813020F0823009F0B5
S1130D8061C03EC086B597B54091700050E060E008
S1130D9070E0BA0155274427A0E0B0E0840F951F06
S1130DA0A61FB71F8093730090937400A0937500DF
S1130DB0B09376008EB58F7B8EBD81E080937200F8
S1130DC041C086B597B54091700050E060E070E096
S1130DD0BA0155274427A0E0B0E0840F951FA61F51
S1130DE0B71F8093770090937800A0937900B09315
S1130DF07A008EB580648EBD82E08093720022C03A
S1130E0086B597B54091700050E060E070E0BA019B
S1130E1055274427A0E0B0E0840F951FA61FB71FF5
S1130E2080937B0090937C00A0937D00B0937E0020
S1130E30109272001EBC1DBC1CBC17BC16BC89B72A
S1130E408B7D89BFBF91AF919F918F917F916F915E
S1130E505F914F910F900FBE0F901F9018958FB711
S1130E6080688FBF08951FBE0895833030F58130A8
S1130E7051F0813018F0823011F51AC083B7682B15
S1130E8063BF80E008958FB5962F9170892B8FBD35
S1130E908FB5962F9270892B8FBD8EB5962F987033
S1130EA0892B8EBD8EB56071682B6EBD80E0089570
S1130EB085B5886485BD80E0089581E0089580E06B
S1130EC00895EF920F93833088F5813071F081306B
S1130ED018F0823069F521C083B7082B03BF4CBFDB
S1130EE083B7682B63BF80E024C08FB5082B0FBD88
S1130EF081E0E81621F45BBD4ABD80E008C082E0D1
S1130F00E81621F459BD48BD80E001C081E037BD39
S1130F1026BD9EB5692B6EBD0CC085B5082B05BDDD
S1130F2043BD85B5682B65BD80E003C081E001C089
S1130F3080E00F91EF900895833040F5813081F087
S1130F40813018F0823021F516C083B78E7F83BFBD
S1130F5083B78D7F83BF83B78D7F83BF80E0089580
S1130F608EB58E7F8EBD8EB58D7F8EBD8EB58D7FF9
S1130F708EBD80E0089585B58E7F85BD85B58D7F56
S1130F8085BD85B58D7F85BD80E0089581E0089598
S1130F9080E008950CD0E6C0DED040F0D5D030F02B
S1130FA021F45F3F19F0C7C0511110C1CAC0EBD082
S1130FB098F39923C9F35523B1F3951B550BBB271C
S1130FC0AA2762177307840738F09F5F5F4F220FC9
S1130FD0331F441FAA1FA9F333D00E2E3AF0E0E8C2
S1130FE030D091505040E695001CCAF729D0FE2F0E
S1130FF027D0660F771F881FBB1F261737074807A0
S1131000AB07B0E809F0BB0B802DBF01FF27935855
S11310105F4F2AF09E3F510568F08DC0D7C05F3FF7
S1131020ECF3983EDCF3869577956795B795F7953D
S11310309F5FC9F7880F911D9695879597F9089535
S1131040E1E0660F771F881FBB1F621773078407D1
S1131050BA0720F0621B730B840BBA0BEE1F88F7E0
S1131060E095089598D088F09F5790F0B92F99276C
S1131070B751A0F0D1F0660F771F881F991F1AF09F
S1131080BA95C9F712C0B13081F09FD0B1E008958C
S11310909CC0672F782F8827B85F39F0B93FCCF30D
S11310A0869577956795B395D9F73EF49095809595
S11310B0709561957F4F8F4F9F4F0895E89409C0B5
S11310C097FB3EF490958095709561957F4F8F4F77
S11310D09F4F9923A9F0F92F96E9BB279395F6958D
S11310E0879577956795B795F111F8CFFAF4BB0F0B
S11310F011F460FF1BC06F5F7F4F8F4F9F4F16C06F
S1131100882311F096E911C0772321F09EE8872FF8
S1131110762F05C0662371F096E8862F70E060E0B4
S11311202AF09A95660F771F881FDAF7880F96952D
S1131130879597F9089597F99F6780E870E060E0D4
S113114008959FEF80EC089500240A94161617065C
S113115018060906089500240A94121613061406A4
S113116005060895092E0394000C11F4882352F007
S1131170BB0F40F4BF2B11F460FF04C06F5F7F4FBF
S11311808F4F9F4F089557FD9058440F551F59F0A6
S11311905F3F71F04795880F97FB991F61F09F3F60
S11311A079F087950895121613061406551FF2CF89
S11311B04695F1DF08C0161617061806991FF1CFD9
S11311C086957105610508940895E894BB27662700
S11311D07727CB0197F908950BD0C4CFB5DF28F05A
S11311E0BADF18F0952309F0A6CFABCF1124EECFC8
S11311F0CADFA0F3959FD1F3950F50E0551F629F6E
S1131200F001729FBB27F00DB11D639FAA27F00D5B
S1131210B11DAA1F649F6627B00DA11D661F829F82
S11312202227B00DA11D621F739FB00DA11D621F67
S1131230839FA00D611D221F749F3327A00D611D84
S1131240231F849F600D211D822F762F6A2F112466
S11312509F5750408AF0E1F088234AF0EE0FFF1FB9
S1131260BB1F661F771F881F91505040A9F79E3FF0
S1131270510570F060CFAACF5F3FECF3983EDCF3EA
S1131280869577956795B795F795E7959F5FC1F72D
S1131290FE2B880F911D9695879597F90895629F67
S11312A0D001739FF001829FE00DF11D649FE00D5A
S11312B0F11D929FF00D839FF00D749FF00D659FBB
S11312C0F00D9927729FB00DE11DF91F639FB00DBA
S11312D0E11DF91FBD01CF0111240895A1E21A2EC9
S11312E0AA1BBB1BFD010DC0AA1FBB1FEE1FFF1FC6
S11312F0A217B307E407F50720F0A21BB30BE40B16
S1131300F50B661F771F881F991F1A9469F760955C
S11313107095809590959B01AC01BD01CF01089516
S1071320F894FFCF6B
S1131324647574793A00667265713A00485A00002B
S9030000FC
